{
  "contractName": "AuditTrail",
  "abi": [
    {
      "inputs": [],
      "stateMutability": "nonpayable",
      "type": "constructor"
    },
    {
      "inputs": [],
      "name": "admin",
      "outputs": [
        {
          "internalType": "address",
          "name": "",
          "type": "address"
        }
      ],
      "stateMutability": "view",
      "type": "function"
    },
    {
      "inputs": [
        {
          "internalType": "address",
          "name": "",
          "type": "address"
        }
      ],
      "name": "employees",
      "outputs": [
        {
          "internalType": "uint256",
          "name": "EidRegistered",
          "type": "uint256"
        },
        {
          "internalType": "uint256",
          "name": "Bid",
          "type": "uint256"
        },
        {
          "internalType": "uint256",
          "name": "Hid",
          "type": "uint256"
        },
        {
          "internalType": "uint256",
          "name": "timestamp",
          "type": "uint256"
        }
      ],
      "stateMutability": "view",
      "type": "function"
    },
    {
      "inputs": [
        {
          "internalType": "address",
          "name": "employeeAddress",
          "type": "address"
        },
        {
          "internalType": "uint256",
          "name": "HPicom",
          "type": "uint256"
        },
        {
          "internalType": "uint256",
          "name": "ICcom",
          "type": "uint256"
        }
      ],
      "name": "verifyCompliant",
      "outputs": [],
      "stateMutability": "nonpayable",
      "type": "function"
    }
  ],
  "bytecode": "0x608060405234801561001057600080fd5b5033600160006101000a81548173ffffffffffffffffffffffffffffffffffffffff021916908373ffffffffffffffffffffffffffffffffffffffff1602179055506104ad806100616000396000f3fe608060405234801561001057600080fd5b50600436106100415760003560e01c80634ee8599114610046578063d067894714610062578063f851a44014610095575b600080fd5b610060600480360381019061005b91906102d6565b6100b3565b005b61007c60048036038101906100779190610329565b6101e7565b60405161008c9493929190610365565b60405180910390f35b61009d610217565b6040516100aa91906103b9565b60405180910390f35b600160009054906101000a900473ffffffffffffffffffffffffffffffffffffffff1673ffffffffffffffffffffffffffffffffffffffff163373ffffffffffffffffffffffffffffffffffffffff1614610143576040517f08c379a000000000000000000000000000000000000000000000000000000000815260040161013a90610457565b60405180910390fd5b60008060008573ffffffffffffffffffffffffffffffffffffffff1673ffffffffffffffffffffffffffffffffffffffff1681526020019081526020016000209050600181600301600085815260200190815260200160002060006101000a81548160ff021916908315150217905550600181600401600084815260200190815260200160002060006101000a81548160ff02191690831515021790555050505050565b60006020528060005260406000206000915090508060000154908060010154908060020154908060060154905084565b600160009054906101000a900473ffffffffffffffffffffffffffffffffffffffff1681565b600080fd5b600073ffffffffffffffffffffffffffffffffffffffff82169050919050565b600061026d82610242565b9050919050565b61027d81610262565b811461028857600080fd5b50565b60008135905061029a81610274565b92915050565b6000819050919050565b6102b3816102a0565b81146102be57600080fd5b50565b6000813590506102d0816102aa565b92915050565b6000806000606084860312156102ef576102ee61023d565b5b60006102fd8682870161028b565b935050602061030e868287016102c1565b925050604061031f868287016102c1565b9150509250925092565b60006020828403121561033f5761033e61023d565b5b600061034d8482850161028b565b91505092915050565b61035f816102a0565b82525050565b600060808201905061037a6000830187610356565b6103876020830186610356565b6103946040830185610356565b6103a16060830184610356565b95945050505050565b6103b381610262565b82525050565b60006020820190506103ce60008301846103aa565b92915050565b600082825260208201905092915050565b7f4f6e6c792061646d696e2063616e20706572666f726d2074686973206163746960008201527f6f6e000000000000000000000000000000000000000000000000000000000000602082015250565b60006104416022836103d4565b915061044c826103e5565b604082019050919050565b6000602082019050818103600083015261047081610434565b905091905056fea26469706673582212208a70299d5729b03784dfaf3349e427de16cf790280db7471572725edf2265cc664736f6c63430008110033",
  "immutableReferences": {},
  "source": "// SPDX-License-Identifier: MIT\npragma solidity >=0.5.0 <0.9.0;\n\ncontract AuditTrail {\n    struct Employee {\n        uint EidRegistered;\n        uint Bid;\n        uint Hid;\n        mapping(uint => bool) isComplaintHp;\n        mapping(uint => bool) isComplaintIC;\n        mapping(uint => uint) data;\n        uint timestamp;\n    }\n\n    mapping(address => Employee) public employees; // Mapping employees' data\n    address public admin;\n\n    constructor() {\n        admin = msg.sender; // Ethereum address of the account \n    }\n\n    modifier onlyAdmin() {\n        require(msg.sender == admin, \"Only admin can perform this action\");\n        _;\n    }\n\n    function verifyCompliant(address employeeAddress, uint HPicom, uint ICcom) external onlyAdmin {\n        Employee storage employee = employees[employeeAddress]; // Access employee data\n        employee.isComplaintHp[HPicom] = true;\n        employee.isComplaintIC[ICcom] = true;\n    }\n}\n",
  "sourcePath": "/Users/rj/Desktop/FYDP1/contracts/auditTrail.sol",
  "compiler": {
    "name": "solc",
    "version": "0.8.17+commit.8df45f5f.Emscripten.clang"
  },
  "schemaVersion": "3.4.16",
  "updatedAt": "2025-03-06T14:43:58.797Z",
  "devdoc": {
    "kind": "dev",
    "methods": {},
    "version": 1
  },
  "userdoc": {
    "kind": "user",
    "methods": {},
    "version": 1
  }
}