{
  "contractName": "BlockIDGeneration",
  "abi": [
    {
      "anonymous": false,
      "inputs": [
        {
          "indexed": true,
          "internalType": "address",
          "name": "user",
          "type": "address"
        },
        {
          "indexed": false,
          "internalType": "uint256",
          "name": "bid",
          "type": "uint256"
        },
        {
          "indexed": false,
          "internalType": "bytes32",
          "name": "hi",
          "type": "bytes32"
        }
      ],
      "name": "BlockIDGenerated",
      "type": "event"
    },
    {
      "anonymous": false,
      "inputs": [
        {
          "indexed": true,
          "internalType": "address",
          "name": "user",
          "type": "address"
        },
        {
          "indexed": false,
          "internalType": "string",
          "name": "info",
          "type": "string"
        }
      ],
      "name": "UserRegistered",
      "type": "event"
    },
    {
      "inputs": [
        {
          "internalType": "uint256",
          "name": "",
          "type": "uint256"
        }
      ],
      "name": "blockHashes",
      "outputs": [
        {
          "internalType": "bytes32",
          "name": "",
          "type": "bytes32"
        }
      ],
      "stateMutability": "view",
      "type": "function",
      "constant": true
    },
    {
      "inputs": [
        {
          "internalType": "address",
          "name": "",
          "type": "address"
        }
      ],
      "name": "users",
      "outputs": [
        {
          "internalType": "string",
          "name": "info",
          "type": "string"
        },
        {
          "internalType": "bool",
          "name": "isRegistered",
          "type": "bool"
        }
      ],
      "stateMutability": "view",
      "type": "function",
      "constant": true
    },
    {
      "inputs": [
        {
          "internalType": "address",
          "name": "uid",
          "type": "address"
        },
        {
          "internalType": "string",
          "name": "_info",
          "type": "string"
        }
      ],
      "name": "registerUser",
      "outputs": [],
      "stateMutability": "nonpayable",
      "type": "function"
    },
    {
      "inputs": [
        {
          "internalType": "address",
          "name": "uid",
          "type": "address"
        }
      ],
      "name": "generateBlockID",
      "outputs": [
        {
          "internalType": "bytes32",
          "name": "",
          "type": "bytes32"
        }
      ],
      "stateMutability": "nonpayable",
      "type": "function"
    }
  ],
  "bytecode": "0x608060405234801561001057600080fd5b50610c34806100206000396000f3fe608060405234801561001057600080fd5b506004361061004c5760003560e01c80630ea126f91461005157806334cdf78d1461006d57806384a28b661461009d578063a87430ba146100cd575b600080fd5b61006b60048036038101906100669190610604565b6100fe565b005b61008760048036038101906100829190610696565b61026e565b60405161009491906106dc565b60405180910390f35b6100b760048036038101906100b291906106f7565b610286565b6040516100c491906106dc565b60405180910390f35b6100e760048036038101906100e291906106f7565b610393565b6040516100f59291906107be565b60405180910390f35b6000808373ffffffffffffffffffffffffffffffffffffffff1673ffffffffffffffffffffffffffffffffffffffff16815260200190815260200160002060010160009054906101000a900460ff161561018d576040517f08c379a00000000000000000000000000000000000000000000000000000000081526004016101849061083a565b60405180910390fd5b6040518060400160405280828152602001600115158152506000808473ffffffffffffffffffffffffffffffffffffffff1673ffffffffffffffffffffffffffffffffffffffff16815260200190815260200160002060008201518160000190816101f89190610a66565b5060208201518160010160006101000a81548160ff0219169083151502179055509050508173ffffffffffffffffffffffffffffffffffffffff167f48cac28ad4dc618e15f4c2dd5e97751182f166de97b25618318b2112aa951a2f826040516102629190610b38565b60405180910390a25050565b60016020528060005260406000206000915090505481565b60008060008373ffffffffffffffffffffffffffffffffffffffff1673ffffffffffffffffffffffffffffffffffffffff16815260200190815260200160002060010160009054906101000a900460ff16610316576040517f08c379a000000000000000000000000000000000000000000000000000000000815260040161030d90610ba6565b60405180910390fd5b60004390506000814090508060016000848152602001908152602001600020819055508373ffffffffffffffffffffffffffffffffffffffff167f7453e69c1ee77ea14cb22ceb65b2070b1c2370140f23e4c6563b44ae393ebb3c8383604051610381929190610bd5565b60405180910390a28092505050919050565b60006020528060005260406000206000915090508060000180546103b690610889565b80601f01602080910402602001604051908101604052809291908181526020018280546103e290610889565b801561042f5780601f106104045761010080835404028352916020019161042f565b820191906000526020600020905b81548152906001019060200180831161041257829003601f168201915b5050505050908060010160009054906101000a900460ff16905082565b6000604051905090565b600080fd5b600080fd5b600073ffffffffffffffffffffffffffffffffffffffff82169050919050565b600061048b82610460565b9050919050565b61049b81610480565b81146104a657600080fd5b50565b6000813590506104b881610492565b92915050565b600080fd5b600080fd5b6000601f19601f8301169050919050565b7f4e487b7100000000000000000000000000000000000000000000000000000000600052604160045260246000fd5b610511826104c8565b810181811067ffffffffffffffff821117156105305761052f6104d9565b5b80604052505050565b600061054361044c565b905061054f8282610508565b919050565b600067ffffffffffffffff82111561056f5761056e6104d9565b5b610578826104c8565b9050602081019050919050565b82818337600083830152505050565b60006105a76105a284610554565b610539565b9050828152602081018484840111156105c3576105c26104c3565b5b6105ce848285610585565b509392505050565b600082601f8301126105eb576105ea6104be565b5b81356105fb848260208601610594565b91505092915050565b6000806040838503121561061b5761061a610456565b5b6000610629858286016104a9565b925050602083013567ffffffffffffffff81111561064a5761064961045b565b5b610656858286016105d6565b9150509250929050565b6000819050919050565b61067381610660565b811461067e57600080fd5b50565b6000813590506106908161066a565b92915050565b6000602082840312156106ac576106ab610456565b5b60006106ba84828501610681565b91505092915050565b6000819050919050565b6106d6816106c3565b82525050565b60006020820190506106f160008301846106cd565b92915050565b60006020828403121561070d5761070c610456565b5b600061071b848285016104a9565b91505092915050565b600081519050919050565b600082825260208201905092915050565b60005b8381101561075e578082015181840152602081019050610743565b60008484015250505050565b600061077582610724565b61077f818561072f565b935061078f818560208601610740565b610798816104c8565b840191505092915050565b60008115159050919050565b6107b8816107a3565b82525050565b600060408201905081810360008301526107d8818561076a565b90506107e760208301846107af565b9392505050565b7f5573657220616c72656164792072656769737465726564000000000000000000600082015250565b600061082460178361072f565b915061082f826107ee565b602082019050919050565b6000602082019050818103600083015261085381610817565b9050919050565b7f4e487b7100000000000000000000000000000000000000000000000000000000600052602260045260246000fd5b600060028204905060018216806108a157607f821691505b6020821081036108b4576108b361085a565b5b50919050565b60008190508160005260206000209050919050565b60006020601f8301049050919050565b600082821b905092915050565b60006008830261091c7fffffffffffffffffffffffffffffffffffffffffffffffffffffffffffffffff826108df565b61092686836108df565b95508019841693508086168417925050509392505050565b6000819050919050565b600061096361095e61095984610660565b61093e565b610660565b9050919050565b6000819050919050565b61097d83610948565b6109916109898261096a565b8484546108ec565b825550505050565b600090565b6109a6610999565b6109b1818484610974565b505050565b5b818110156109d5576109ca60008261099e565b6001810190506109b7565b5050565b601f821115610a1a576109eb816108ba565b6109f4846108cf565b81016020851015610a03578190505b610a17610a0f856108cf565b8301826109b6565b50505b505050565b600082821c905092915050565b6000610a3d60001984600802610a1f565b1980831691505092915050565b6000610a568383610a2c565b9150826002028217905092915050565b610a6f82610724565b67ffffffffffffffff811115610a8857610a876104d9565b5b610a928254610889565b610a9d8282856109d9565b600060209050601f831160018114610ad05760008415610abe578287015190505b610ac88582610a4a565b865550610b30565b601f198416610ade866108ba565b60005b82811015610b0657848901518255600182019150602085019450602081019050610ae1565b86831015610b235784890151610b1f601f891682610a2c565b8355505b6001600288020188555050505b505050505050565b60006020820190508181036000830152610b52818461076a565b905092915050565b7f4661696c656420746f2067656e65726174652048690000000000000000000000600082015250565b6000610b9060158361072f565b9150610b9b82610b5a565b602082019050919050565b60006020820190508181036000830152610bbf81610b83565b9050919050565b610bcf81610660565b82525050565b6000604082019050610bea6000830185610bc6565b610bf760208301846106cd565b939250505056fea26469706673582212202d0a555e45d26689a8a326451fc0663830eeca4a58773080bccec640174bc26964736f6c63430008110033",
  "immutableReferences": {},
  "source": "// SPDX-License-Identifier: MIT\r\npragma solidity ^0.8.0;\r\n\r\ncontract BlockIDGeneration {\r\n    struct User {\r\n        string info;  // n: User information\r\n        bool isRegistered;\r\n    }\r\n\r\n    mapping(address => User) public users;\r\n    mapping(uint256 => bytes32) public blockHashes;\r\n\r\n    event UserRegistered(address indexed user, string info);\r\n    event BlockIDGenerated(address indexed user, uint256 bid, bytes32 hi);\r\n\r\n    function registerUser(address uid, string memory _info) public {\r\n        require(!users[uid].isRegistered, \"User already registered\");\r\n        users[uid] = User(_info, true);\r\n        emit UserRegistered(uid, _info);\r\n    }\r\n\r\n    function generateBlockID(address uid) public returns (bytes32) {\r\n        require(users[uid].isRegistered, \"Failed to generate Hi\");\r\n\r\n        uint256 bid = block.number; // Using the current block number as Bid\r\n        bytes32 hi = blockhash(bid);\r\n\r\n        blockHashes[bid] = hi;\r\n        emit BlockIDGenerated(uid, bid, hi);\r\n        return hi;\r\n    }\r\n}",
  "sourcePath": "/Users/rj/Desktop/FYDP1/contracts/BlockIDGeneration.sol",
  "compiler": {
    "name": "solc",
    "version": "0.8.17+commit.8df45f5f.Emscripten.clang"
  },
  "schemaVersion": "3.4.16",
  "updatedAt": "2025-03-10T06:46:30.583Z",
  "networkType": "ethereum",
  "devdoc": {
    "kind": "dev",
    "methods": {},
    "version": 1
  },
  "userdoc": {
    "kind": "user",
    "methods": {},
    "version": 1
  }
}