{
  "contractName": "ClinicalTrial",
  "abi": [
    {
      "inputs": [
        {
          "internalType": "address",
          "name": "_regulator",
          "type": "address"
        },
        {
          "internalType": "address",
          "name": "_cro",
          "type": "address"
        },
        {
          "internalType": "uint256",
          "name": "_proposalId",
          "type": "uint256"
        },
        {
          "internalType": "uint256",
          "name": "_startDate",
          "type": "uint256"
        },
        {
          "internalType": "uint256",
          "name": "_endDate",
          "type": "uint256"
        },
        {
          "internalType": "bytes32",
          "name": "_drugName",
          "type": "bytes32"
        },
        {
          "internalType": "bytes",
          "name": "_ipfsHash",
          "type": "bytes"
        }
      ],
      "stateMutability": "nonpayable",
      "type": "constructor"
    },
    {
      "anonymous": false,
      "inputs": [
        {
          "indexed": false,
          "internalType": "address",
          "name": "msgSender",
          "type": "address"
        },
        {
          "indexed": false,
          "internalType": "bytes32",
          "name": "msg",
          "type": "bytes32"
        },
        {
          "indexed": false,
          "internalType": "uint256",
          "name": "timestamp",
          "type": "uint256"
        }
      ],
      "name": "AddDataPoint",
      "type": "event"
    },
    {
      "anonymous": false,
      "inputs": [
        {
          "indexed": false,
          "internalType": "address",
          "name": "msgSender",
          "type": "address"
        },
        {
          "indexed": false,
          "internalType": "bytes32",
          "name": "msg",
          "type": "bytes32"
        },
        {
          "indexed": false,
          "internalType": "uint256",
          "name": "timestamp",
          "type": "uint256"
        }
      ],
      "name": "AddSubject",
      "type": "event"
    },
    {
      "inputs": [],
      "name": "createdDate",
      "outputs": [
        {
          "internalType": "uint256",
          "name": "",
          "type": "uint256"
        }
      ],
      "stateMutability": "view",
      "type": "function",
      "constant": true
    },
    {
      "inputs": [],
      "name": "cro",
      "outputs": [
        {
          "internalType": "address",
          "name": "",
          "type": "address"
        }
      ],
      "stateMutability": "view",
      "type": "function",
      "constant": true
    },
    {
      "inputs": [
        {
          "internalType": "bytes32",
          "name": "",
          "type": "bytes32"
        },
        {
          "internalType": "uint256",
          "name": "",
          "type": "uint256"
        }
      ],
      "name": "data",
      "outputs": [
        {
          "internalType": "uint256",
          "name": "timestamp",
          "type": "uint256"
        },
        {
          "internalType": "bytes32",
          "name": "json",
          "type": "bytes32"
        }
      ],
      "stateMutability": "view",
      "type": "function",
      "constant": true
    },
    {
      "inputs": [],
      "name": "drugName",
      "outputs": [
        {
          "internalType": "bytes32",
          "name": "",
          "type": "bytes32"
        }
      ],
      "stateMutability": "view",
      "type": "function",
      "constant": true
    },
    {
      "inputs": [],
      "name": "endDate",
      "outputs": [
        {
          "internalType": "uint256",
          "name": "",
          "type": "uint256"
        }
      ],
      "stateMutability": "view",
      "type": "function",
      "constant": true
    },
    {
      "inputs": [],
      "name": "ipfsHash",
      "outputs": [
        {
          "internalType": "bytes",
          "name": "",
          "type": "bytes"
        }
      ],
      "stateMutability": "view",
      "type": "function",
      "constant": true
    },
    {
      "inputs": [],
      "name": "proposalId",
      "outputs": [
        {
          "internalType": "uint256",
          "name": "",
          "type": "uint256"
        }
      ],
      "stateMutability": "view",
      "type": "function",
      "constant": true
    },
    {
      "inputs": [],
      "name": "regulator",
      "outputs": [
        {
          "internalType": "address",
          "name": "",
          "type": "address"
        }
      ],
      "stateMutability": "view",
      "type": "function",
      "constant": true
    },
    {
      "inputs": [],
      "name": "startDate",
      "outputs": [
        {
          "internalType": "uint256",
          "name": "",
          "type": "uint256"
        }
      ],
      "stateMutability": "view",
      "type": "function",
      "constant": true
    },
    {
      "inputs": [
        {
          "internalType": "uint256",
          "name": "",
          "type": "uint256"
        }
      ],
      "name": "subjects",
      "outputs": [
        {
          "internalType": "bytes32",
          "name": "",
          "type": "bytes32"
        }
      ],
      "stateMutability": "view",
      "type": "function",
      "constant": true
    },
    {
      "inputs": [],
      "name": "getSubjectsCount",
      "outputs": [
        {
          "internalType": "uint256",
          "name": "_counter",
          "type": "uint256"
        }
      ],
      "stateMutability": "view",
      "type": "function",
      "constant": true
    },
    {
      "inputs": [
        {
          "internalType": "uint256",
          "name": "_id",
          "type": "uint256"
        }
      ],
      "name": "getSubjectById",
      "outputs": [
        {
          "internalType": "bytes32",
          "name": "_subject",
          "type": "bytes32"
        }
      ],
      "stateMutability": "view",
      "type": "function",
      "constant": true
    },
    {
      "inputs": [
        {
          "internalType": "uint256",
          "name": "_subjectId",
          "type": "uint256"
        }
      ],
      "name": "getDataCounterForSubject",
      "outputs": [
        {
          "internalType": "uint256",
          "name": "_counter",
          "type": "uint256"
        }
      ],
      "stateMutability": "view",
      "type": "function",
      "constant": true
    },
    {
      "inputs": [
        {
          "internalType": "uint256",
          "name": "_subjectId",
          "type": "uint256"
        }
      ],
      "name": "getSubjectIdentById",
      "outputs": [
        {
          "internalType": "bytes32",
          "name": "_ident",
          "type": "bytes32"
        }
      ],
      "stateMutability": "view",
      "type": "function",
      "constant": true
    },
    {
      "inputs": [
        {
          "internalType": "uint256",
          "name": "_subjectId",
          "type": "uint256"
        },
        {
          "internalType": "uint256",
          "name": "_dataPointId",
          "type": "uint256"
        }
      ],
      "name": "getDataPointForSubject",
      "outputs": [
        {
          "internalType": "uint256",
          "name": "_timestamp",
          "type": "uint256"
        },
        {
          "internalType": "bytes32",
          "name": "_json",
          "type": "bytes32"
        }
      ],
      "stateMutability": "view",
      "type": "function",
      "constant": true
    },
    {
      "inputs": [
        {
          "internalType": "bytes32",
          "name": "_subject",
          "type": "bytes32"
        }
      ],
      "name": "addSubject",
      "outputs": [
        {
          "internalType": "bool",
          "name": "_success",
          "type": "bool"
        }
      ],
      "stateMutability": "nonpayable",
      "type": "function"
    },
    {
      "inputs": [
        {
          "internalType": "uint256",
          "name": "_subjectId",
          "type": "uint256"
        },
        {
          "internalType": "bytes32",
          "name": "_json",
          "type": "bytes32"
        }
      ],
      "name": "addDataPoint",
      "outputs": [
        {
          "internalType": "bool",
          "name": "_success",
          "type": "bool"
        }
      ],
      "stateMutability": "nonpayable",
      "type": "function"
    }
  ],
  "bytecode": "0x60806040523480156200001157600080fd5b50604051620016c1380380620016c1833981810160405281019062000037919062000368565b86600160006101000a81548173ffffffffffffffffffffffffffffffffffffffff021916908373ffffffffffffffffffffffffffffffffffffffff160217905550856000806101000a81548173ffffffffffffffffffffffffffffffffffffffff021916908373ffffffffffffffffffffffffffffffffffffffff160217905550846002819055508360038190555082600481905550816006819055508060079081620000e591906200067b565b50426005819055505050505050505062000762565b6000604051905090565b600080fd5b600080fd5b600073ffffffffffffffffffffffffffffffffffffffff82169050919050565b60006200013b826200010e565b9050919050565b6200014d816200012e565b81146200015957600080fd5b50565b6000815190506200016d8162000142565b92915050565b6000819050919050565b620001888162000173565b81146200019457600080fd5b50565b600081519050620001a8816200017d565b92915050565b6000819050919050565b620001c381620001ae565b8114620001cf57600080fd5b50565b600081519050620001e381620001b8565b92915050565b600080fd5b600080fd5b6000601f19601f8301169050919050565b7f4e487b7100000000000000000000000000000000000000000000000000000000600052604160045260246000fd5b6200023e82620001f3565b810181811067ffffffffffffffff8211171562000260576200025f62000204565b5b80604052505050565b600062000275620000fa565b905062000283828262000233565b919050565b600067ffffffffffffffff821115620002a657620002a562000204565b5b620002b182620001f3565b9050602081019050919050565b60005b83811015620002de578082015181840152602081019050620002c1565b60008484015250505050565b600062000301620002fb8462000288565b62000269565b90508281526020810184848401111562000320576200031f620001ee565b5b6200032d848285620002be565b509392505050565b600082601f8301126200034d576200034c620001e9565b5b81516200035f848260208601620002ea565b91505092915050565b600080600080600080600060e0888a0312156200038a576200038962000104565b5b60006200039a8a828b016200015c565b9750506020620003ad8a828b016200015c565b9650506040620003c08a828b0162000197565b9550506060620003d38a828b0162000197565b9450506080620003e68a828b0162000197565b93505060a0620003f98a828b01620001d2565b92505060c088015167ffffffffffffffff8111156200041d576200041c62000109565b5b6200042b8a828b0162000335565b91505092959891949750929550565b600081519050919050565b7f4e487b7100000000000000000000000000000000000000000000000000000000600052602260045260246000fd5b600060028204905060018216806200048d57607f821691505b602082108103620004a357620004a262000445565b5b50919050565b60008190508160005260206000209050919050565b60006020601f8301049050919050565b600082821b905092915050565b6000600883026200050d7fffffffffffffffffffffffffffffffffffffffffffffffffffffffffffffffff82620004ce565b620005198683620004ce565b95508019841693508086168417925050509392505050565b6000819050919050565b60006200055c62000556620005508462000173565b62000531565b62000173565b9050919050565b6000819050919050565b62000578836200053b565b62000590620005878262000563565b848454620004db565b825550505050565b600090565b620005a762000598565b620005b48184846200056d565b505050565b5b81811015620005dc57620005d06000826200059d565b600181019050620005ba565b5050565b601f8211156200062b57620005f581620004a9565b6200060084620004be565b8101602085101562000610578190505b620006286200061f85620004be565b830182620005b9565b50505b505050565b600082821c905092915050565b6000620006506000198460080262000630565b1980831691505092915050565b60006200066b83836200063d565b9150826002028217905092915050565b62000686826200043a565b67ffffffffffffffff811115620006a257620006a162000204565b5b620006ae825462000474565b620006bb828285620005e0565b600060209050601f831160018114620006f35760008415620006de578287015190505b620006ea85826200065d565b8655506200075a565b601f1984166200070386620004a9565b60005b828110156200072d5784890151825560018201915060208501945060208101905062000706565b868310156200074d578489015162000749601f8916826200063d565b8355505b6001600288020188555050505b505050505050565b610f4f80620007726000396000f3fe608060405234801561001057600080fd5b506004361061010b5760003560e01c80635188ab7b116100a25780639f73bef1116100715780639f73bef1146102f8578063c24a0f8b14610316578063c623674f14610334578063cb758a8914610352578063dd8fee14146103825761010b565b80635188ab7b146102485780636207c802146102665780638d12c42614610296578063950d37c5146102c75761010b565b80632c7424af116100de5780632c7424af146101ac5780632dfca445146101dc57806344fbc893146101fa5780634d392e49146102185761010b565b80630b97bc86146101105780630e6e1b3e1461012e5780632bb8607b1461015e5780632c4202011461017c575b600080fd5b6101186103a0565b604051610125919061098f565b60405180910390f35b610148600480360381019061014391906109e5565b6103a6565b6040516101559190610a2d565b60405180910390f35b6101666104e8565b6040516101739190610a89565b60405180910390f35b61019660048036038101906101919190610ad0565b61050c565b6040516101a3919061098f565b60405180910390f35b6101c660048036038101906101c19190610ad0565b610539565b6040516101d39190610b0c565b60405180910390f35b6101e461055d565b6040516101f1919061098f565b60405180910390f35b610202610563565b60405161020f919061098f565b60405180910390f35b610232600480360381019061022d9190610ad0565b610569565b60405161023f9190610b0c565b60405180910390f35b61025061059f565b60405161025d9190610b0c565b60405180910390f35b610280600480360381019061027b9190610ad0565b6105a5565b60405161028d9190610b0c565b60405180910390f35b6102b060048036038101906102ab9190610b27565b610601565b6040516102be929190610b67565b60405180910390f35b6102e160048036038101906102dc9190610b90565b610642565b6040516102ef929190610b67565b60405180910390f35b6103006106eb565b60405161030d919061098f565b60405180910390f35b61031e6106f8565b60405161032b919061098f565b60405180910390f35b61033c6106fe565b6040516103499190610c60565b60405180910390f35b61036c60048036038101906103679190610c82565b61078c565b6040516103799190610a2d565b60405180910390f35b61038a610933565b6040516103979190610a89565b60405180910390f35b60035481565b60008060009054906101000a900473ffffffffffffffffffffffffffffffffffffffff1673ffffffffffffffffffffffffffffffffffffffff163373ffffffffffffffffffffffffffffffffffffffff1614610437576040517f08c379a000000000000000000000000000000000000000000000000000000000815260040161042e90610d1f565b60405180910390fd5b600354421061047b576040517f08c379a000000000000000000000000000000000000000000000000000000000815260040161047290610d8b565b60405180910390fd5b60088290806001815401808255809150506001900390600052602060002001600090919091909150557f98f911b35e4f0185da844cf074d0b20f1c07738e062e10a540d0e30abf5ff9673383426040516104d793929190610dab565b60405180910390a160019050919050565b60008054906101000a900473ffffffffffffffffffffffffffffffffffffffff1681565b600080610518836105a5565b90506009600082815260200190815260200160002080549050915050919050565b6008818154811061054957600080fd5b906000526020600020016000915090505481565b60025481565b60055481565b600060088054905082101561059a576008828154811061058c5761058b610de2565b5b906000526020600020015490505b919050565b60065481565b60006008805490508210156105fc57600882815481106105c8576105c7610de2565b5b90600052602060002001546040516020016105e39190610e32565b6040516020818303038152906040528051906020012090505b919050565b6009602052816000526040600020818154811061061d57600080fd5b9060005260206000209060020201600091509150508060000154908060010154905082565b6000806000610650856105a5565b905060096000828152602001908152602001600020805490508410156106e35760096000828152602001908152602001600020848154811061069557610694610de2565b5b90600052602060002090600202016000015492506009600082815260200190815260200160002084815481106106ce576106cd610de2565b5b90600052602060002090600202016001015491505b509250929050565b6000600880549050905090565b60045481565b6007805461070b90610e7c565b80601f016020809104026020016040519081016040528092919081815260200182805461073790610e7c565b80156107845780601f1061075957610100808354040283529160200191610784565b820191906000526020600020905b81548152906001019060200180831161076757829003601f168201915b505050505081565b60008060009054906101000a900473ffffffffffffffffffffffffffffffffffffffff1673ffffffffffffffffffffffffffffffffffffffff163373ffffffffffffffffffffffffffffffffffffffff161461081d576040517f08c379a000000000000000000000000000000000000000000000000000000000815260040161081490610d1f565b60405180910390fd5b600354421015801561083157506004544211155b610870576040517f08c379a000000000000000000000000000000000000000000000000000000000815260040161086790610ef9565b60405180910390fd5b600061087b846105a5565b9050610885610959565b428160000181815250508381602001818152505060096000838152602001908152602001600020819080600181540180825580915050600190039060005260206000209060020201600090919091909150600082015181600001556020820151816001015550507f15426087b9c2afe3b3a74b6349c22421aba6c35ddbf84fb4e4c152078291acb033854260405161091f93929190610dab565b60405180910390a160019250505092915050565b600160009054906101000a900473ffffffffffffffffffffffffffffffffffffffff1681565b604051806040016040528060008152602001600080191681525090565b6000819050919050565b61098981610976565b82525050565b60006020820190506109a46000830184610980565b92915050565b600080fd5b6000819050919050565b6109c2816109af565b81146109cd57600080fd5b50565b6000813590506109df816109b9565b92915050565b6000602082840312156109fb576109fa6109aa565b5b6000610a09848285016109d0565b91505092915050565b60008115159050919050565b610a2781610a12565b82525050565b6000602082019050610a426000830184610a1e565b92915050565b600073ffffffffffffffffffffffffffffffffffffffff82169050919050565b6000610a7382610a48565b9050919050565b610a8381610a68565b82525050565b6000602082019050610a9e6000830184610a7a565b92915050565b610aad81610976565b8114610ab857600080fd5b50565b600081359050610aca81610aa4565b92915050565b600060208284031215610ae657610ae56109aa565b5b6000610af484828501610abb565b91505092915050565b610b06816109af565b82525050565b6000602082019050610b216000830184610afd565b92915050565b60008060408385031215610b3e57610b3d6109aa565b5b6000610b4c858286016109d0565b9250506020610b5d85828601610abb565b9150509250929050565b6000604082019050610b7c6000830185610980565b610b896020830184610afd565b9392505050565b60008060408385031215610ba757610ba66109aa565b5b6000610bb585828601610abb565b9250506020610bc685828601610abb565b9150509250929050565b600081519050919050565b600082825260208201905092915050565b60005b83811015610c0a578082015181840152602081019050610bef565b60008484015250505050565b6000601f19601f8301169050919050565b6000610c3282610bd0565b610c3c8185610bdb565b9350610c4c818560208601610bec565b610c5581610c16565b840191505092915050565b60006020820190508181036000830152610c7a8184610c27565b905092915050565b60008060408385031215610c9957610c986109aa565b5b6000610ca785828601610abb565b9250506020610cb8858286016109d0565b9150509250929050565b600082825260208201905092915050565b7f4e6f7420617574686f72697a6564000000000000000000000000000000000000600082015250565b6000610d09600e83610cc2565b9150610d1482610cd3565b602082019050919050565b60006020820190508181036000830152610d3881610cfc565b9050919050565b7f547269616c20616c726561647920737461727465640000000000000000000000600082015250565b6000610d75601583610cc2565b9150610d8082610d3f565b602082019050919050565b60006020820190508181036000830152610da481610d68565b9050919050565b6000606082019050610dc06000830186610a7a565b610dcd6020830185610afd565b610dda6040830184610980565b949350505050565b7f4e487b7100000000000000000000000000000000000000000000000000000000600052603260045260246000fd5b6000819050919050565b610e2c610e27826109af565b610e11565b82525050565b6000610e3e8284610e1b565b60208201915081905092915050565b7f4e487b7100000000000000000000000000000000000000000000000000000000600052602260045260246000fd5b60006002820490506001821680610e9457607f821691505b602082108103610ea757610ea6610e4d565b5b50919050565b7f547269616c206e6f74206f70656e000000000000000000000000000000000000600082015250565b6000610ee3600e83610cc2565b9150610eee82610ead565b602082019050919050565b60006020820190508181036000830152610f1281610ed6565b905091905056fea2646970667358221220062d2d3a87d4f945db176bd6f56208a788fab24f1878432dff5d8f82035ceb6c64736f6c63430008110033",
  "immutableReferences": {},
  "source": "// SPDX-License-Identifier: MIT\npragma solidity >=0.5.0 <0.9.0;\n\ncontract ClinicalTrial {\n   address public cro;\n   address public regulator;\n\n   uint public proposalId;\n\n   uint public startDate;\n   uint public endDate;\n   uint public createdDate;\n\n   bytes32 public drugName;\n   bytes public ipfsHash;\n\n   event AddSubject(address msgSender, bytes32 msg, uint timestamp);\n   event AddDataPoint(address msgSender, bytes32 msg, uint timestamp);\n\n   struct DataPoint {\n      uint timestamp;\n      bytes32 json;\n   }\n\n   bytes32[] public subjects;\n   mapping(bytes32 => DataPoint[]) public data; // index keccak256(subjectId)\n\n   modifier croOnly() {\n      require(msg.sender == cro, \"Not authorized\");\n      _;\n   }\n\n   modifier trialIdOpen() {\n      require(block.timestamp >= startDate && block.timestamp <= endDate, \"Trial not open\");\n      _;\n   }\n\n   modifier dateBeforeStart() {\n      require(block.timestamp < startDate, \"Trial already started\");\n      _;\n   }\n\n   constructor(\n      address _regulator,\n      address _cro,\n      uint _proposalId,\n      uint _startDate,\n      uint _endDate,\n      bytes32 _drugName,\n      bytes memory _ipfsHash\n   ) {\n      regulator = _regulator;\n      cro = _cro;\n      proposalId = _proposalId;\n      startDate = _startDate;\n      endDate = _endDate;\n      drugName = _drugName;\n      ipfsHash = _ipfsHash;\n      createdDate = block.timestamp;\n   }\n\n   function getSubjectsCount() public view returns (uint _counter) {\n      _counter = subjects.length;\n   }\n\n   function getSubjectById(uint _id) public view returns (bytes32 _subject) {\n      if (_id < subjects.length) {\n         _subject = subjects[_id];\n      }\n   }\n\n   function getDataCounterForSubject(uint _subjectId) public view returns (uint _counter) {\n      bytes32 ident = getSubjectIdentById(_subjectId);\n      _counter = data[ident].length;\n   }\n\n   function getSubjectIdentById(uint _subjectId) public view returns (bytes32 _ident) {\n      if (_subjectId < subjects.length) {\n         _ident = keccak256(abi.encodePacked(subjects[_subjectId]));\n      }\n   }\n\n   function getDataPointForSubject(uint _subjectId, uint _dataPointId) public view returns (uint _timestamp, bytes32 _json) {\n      bytes32 ident = getSubjectIdentById(_subjectId);\n      if (_dataPointId < data[ident].length) {\n         _timestamp = data[ident][_dataPointId].timestamp;\n         _json = data[ident][_dataPointId].json;\n      }\n   }\n\n   function addSubject(bytes32 _subject) public croOnly dateBeforeStart returns (bool _success) {\n      subjects.push(_subject);\n      emit AddSubject(msg.sender, _subject, block.timestamp);\n      return true;\n   }\n\n   function addDataPoint(uint _subjectId, bytes32 _json) public croOnly trialIdOpen returns (bool _success) {\n      bytes32 ident = getSubjectIdentById(_subjectId);\n      DataPoint memory dp;\n      dp.timestamp = block.timestamp;\n      dp.json = _json;\n      data[ident].push(dp);\n      emit AddDataPoint(msg.sender, _json, block.timestamp);\n      return true;\n   }\n}\n",
  "sourcePath": "/Users/rj/Desktop/FYDP1/contracts/ClinicalTrial.sol",
  "compiler": {
    "name": "solc",
    "version": "0.8.17+commit.8df45f5f.Emscripten.clang"
  },
  "schemaVersion": "3.4.16",
  "updatedAt": "2025-03-18T16:37:46.788Z",
  "networkType": "ethereum",
  "devdoc": {
    "kind": "dev",
    "methods": {},
    "version": 1
  },
  "userdoc": {
    "kind": "user",
    "methods": {},
    "version": 1
  }
}