{
  "contractName": "HealthInsurance",
  "abi": [
    {
      "inputs": [],
      "stateMutability": "nonpayable",
      "type": "constructor"
    },
    {
      "inputs": [
        {
          "internalType": "address",
          "name": "",
          "type": "address"
        }
      ],
      "name": "doctormapping",
      "outputs": [
        {
          "internalType": "bool",
          "name": "",
          "type": "bool"
        }
      ],
      "stateMutability": "view",
      "type": "function"
    },
    {
      "inputs": [
        {
          "internalType": "address",
          "name": "",
          "type": "address"
        }
      ],
      "name": "personmapping",
      "outputs": [
        {
          "internalType": "bool",
          "name": "authorised",
          "type": "bool"
        },
        {
          "internalType": "string",
          "name": "name",
          "type": "string"
        },
        {
          "internalType": "uint256",
          "name": "insuranceAmount",
          "type": "uint256"
        }
      ],
      "stateMutability": "view",
      "type": "function"
    },
    {
      "inputs": [
        {
          "internalType": "address",
          "name": "_address",
          "type": "address"
        }
      ],
      "name": "setDoctor",
      "outputs": [],
      "stateMutability": "nonpayable",
      "type": "function"
    },
    {
      "inputs": [
        {
          "internalType": "string",
          "name": "_name",
          "type": "string"
        },
        {
          "internalType": "uint256",
          "name": "_insuranceAmount",
          "type": "uint256"
        }
      ],
      "name": "setPerson",
      "outputs": [
        {
          "internalType": "address",
          "name": "",
          "type": "address"
        }
      ],
      "stateMutability": "nonpayable",
      "type": "function"
    },
    {
      "inputs": [
        {
          "internalType": "address",
          "name": "_uid",
          "type": "address"
        },
        {
          "internalType": "uint256",
          "name": "_insuranceAmountUsed",
          "type": "uint256"
        }
      ],
      "name": "claimInsurance",
      "outputs": [
        {
          "internalType": "string",
          "name": "",
          "type": "string"
        }
      ],
      "stateMutability": "nonpayable",
      "type": "function"
    }
  ],
  "bytecode": "0x608060405234801561001057600080fd5b50336000806101000a81548173ffffffffffffffffffffffffffffffffffffffff021916908373ffffffffffffffffffffffffffffffffffffffff160217905550610f60806100606000396000f3fe608060405234801561001057600080fd5b50600436106100575760003560e01c80632fda437e1461005c57806348103e651461008c5780635421dea1146100a8578063731c0cad146100da5780639db9cbf91461010a575b600080fd5b610076600480360381019061007191906107fc565b61013a565b6040516100839190610899565b60405180910390f35b6100a660048036038101906100a191906108e0565b610361565b005b6100c260048036038101906100bd91906108e0565b61046b565b6040516100d1939291906109b6565b60405180910390f35b6100f460048036038101906100ef91906108e0565b61052a565b60405161010191906109f4565b60405180910390f35b610124600480360381019061011f9190610a0f565b61054a565b6040516101319190610a4f565b60405180910390f35b60003373ffffffffffffffffffffffffffffffffffffffff1660008054906101000a900473ffffffffffffffffffffffffffffffffffffffff1673ffffffffffffffffffffffffffffffffffffffff161461019457600080fd5b6000600233426040516020016101ab929190610ada565b6040516020818303038152906040526040516101c79190610b4d565b602060405180830381855afa1580156101e4573d6000803e3d6000fd5b5050506040513d601f19601f820116820180604052508101906102079190610b9a565b60601c9050600160008273ffffffffffffffffffffffffffffffffffffffff1673ffffffffffffffffffffffffffffffffffffffff16815260200190815260200160002060000160009054906101000a900460ff161561026657600080fd5b60018060008373ffffffffffffffffffffffffffffffffffffffff1673ffffffffffffffffffffffffffffffffffffffff16815260200190815260200160002060000160006101000a81548160ff02191690831515021790555083600160008373ffffffffffffffffffffffffffffffffffffffff1673ffffffffffffffffffffffffffffffffffffffff168152602001908152602001600020600101908161030f9190610dd3565b5082600160008373ffffffffffffffffffffffffffffffffffffffff1673ffffffffffffffffffffffffffffffffffffffff168152602001908152602001600020600201819055508091505092915050565b3373ffffffffffffffffffffffffffffffffffffffff1660008054906101000a900473ffffffffffffffffffffffffffffffffffffffff1673ffffffffffffffffffffffffffffffffffffffff16146103b957600080fd5b600260008273ffffffffffffffffffffffffffffffffffffffff1673ffffffffffffffffffffffffffffffffffffffff16815260200190815260200160002060009054906101000a900460ff161561041057600080fd5b6001600260008373ffffffffffffffffffffffffffffffffffffffff1673ffffffffffffffffffffffffffffffffffffffff16815260200190815260200160002060006101000a81548160ff02191690831515021790555050565b60016020528060005260406000206000915090508060000160009054906101000a900460ff16908060010180546104a190610bf6565b80601f01602080910402602001604051908101604052809291908181526020018280546104cd90610bf6565b801561051a5780601f106104ef5761010080835404028352916020019161051a565b820191906000526020600020905b8154815290600101906020018083116104fd57829003601f168201915b5050505050908060020154905083565b60026020528060005260406000206000915054906101000a900460ff1681565b6060600260003373ffffffffffffffffffffffffffffffffffffffff1673ffffffffffffffffffffffffffffffffffffffff16815260200190815260200160002060009054906101000a900460ff16156105a357600080fd5b81600160008573ffffffffffffffffffffffffffffffffffffffff1673ffffffffffffffffffffffffffffffffffffffff1681526020019081526020016000206002015410156105f257600080fd5b81600160008573ffffffffffffffffffffffffffffffffffffffff1673ffffffffffffffffffffffffffffffffffffffff16815260200190815260200160002060020160008282546106449190610ed4565b92505081905550604051806060016040528060228152602001610f0960229139905092915050565b6000604051905090565b600080fd5b600080fd5b600080fd5b600080fd5b6000601f19601f8301169050919050565b7f4e487b7100000000000000000000000000000000000000000000000000000000600052604160045260246000fd5b6106d38261068a565b810181811067ffffffffffffffff821117156106f2576106f161069b565b5b80604052505050565b600061070561066c565b905061071182826106ca565b919050565b600067ffffffffffffffff8211156107315761073061069b565b5b61073a8261068a565b9050602081019050919050565b82818337600083830152505050565b600061076961076484610716565b6106fb565b90508281526020810184848401111561078557610784610685565b5b610790848285610747565b509392505050565b600082601f8301126107ad576107ac610680565b5b81356107bd848260208601610756565b91505092915050565b6000819050919050565b6107d9816107c6565b81146107e457600080fd5b50565b6000813590506107f6816107d0565b92915050565b6000806040838503121561081357610812610676565b5b600083013567ffffffffffffffff8111156108315761083061067b565b5b61083d85828601610798565b925050602061084e858286016107e7565b9150509250929050565b600073ffffffffffffffffffffffffffffffffffffffff82169050919050565b600061088382610858565b9050919050565b61089381610878565b82525050565b60006020820190506108ae600083018461088a565b92915050565b6108bd81610878565b81146108c857600080fd5b50565b6000813590506108da816108b4565b92915050565b6000602082840312156108f6576108f5610676565b5b6000610904848285016108cb565b91505092915050565b60008115159050919050565b6109228161090d565b82525050565b600081519050919050565b600082825260208201905092915050565b60005b83811015610962578082015181840152602081019050610947565b60008484015250505050565b600061097982610928565b6109838185610933565b9350610993818560208601610944565b61099c8161068a565b840191505092915050565b6109b0816107c6565b82525050565b60006060820190506109cb6000830186610919565b81810360208301526109dd818561096e565b90506109ec60408301846109a7565b949350505050565b6000602082019050610a096000830184610919565b92915050565b60008060408385031215610a2657610a25610676565b5b6000610a34858286016108cb565b9250506020610a45858286016107e7565b9150509250929050565b60006020820190508181036000830152610a69818461096e565b905092915050565b60008160601b9050919050565b6000610a8982610a71565b9050919050565b6000610a9b82610a7e565b9050919050565b610ab3610aae82610878565b610a90565b82525050565b6000819050919050565b610ad4610acf826107c6565b610ab9565b82525050565b6000610ae68285610aa2565b601482019150610af68284610ac3565b6020820191508190509392505050565b600081519050919050565b600081905092915050565b6000610b2782610b06565b610b318185610b11565b9350610b41818560208601610944565b80840191505092915050565b6000610b598284610b1c565b915081905092915050565b6000819050919050565b610b7781610b64565b8114610b8257600080fd5b50565b600081519050610b9481610b6e565b92915050565b600060208284031215610bb057610baf610676565b5b6000610bbe84828501610b85565b91505092915050565b7f4e487b7100000000000000000000000000000000000000000000000000000000600052602260045260246000fd5b60006002820490506001821680610c0e57607f821691505b602082108103610c2157610c20610bc7565b5b50919050565b60008190508160005260206000209050919050565b60006020601f8301049050919050565b600082821b905092915050565b600060088302610c897fffffffffffffffffffffffffffffffffffffffffffffffffffffffffffffffff82610c4c565b610c938683610c4c565b95508019841693508086168417925050509392505050565b6000819050919050565b6000610cd0610ccb610cc6846107c6565b610cab565b6107c6565b9050919050565b6000819050919050565b610cea83610cb5565b610cfe610cf682610cd7565b848454610c59565b825550505050565b600090565b610d13610d06565b610d1e818484610ce1565b505050565b5b81811015610d4257610d37600082610d0b565b600181019050610d24565b5050565b601f821115610d8757610d5881610c27565b610d6184610c3c565b81016020851015610d70578190505b610d84610d7c85610c3c565b830182610d23565b50505b505050565b600082821c905092915050565b6000610daa60001984600802610d8c565b1980831691505092915050565b6000610dc38383610d99565b9150826002028217905092915050565b610ddc82610928565b67ffffffffffffffff811115610df557610df461069b565b5b610dff8254610bf6565b610e0a828285610d46565b600060209050601f831160018114610e3d5760008415610e2b578287015190505b610e358582610db7565b865550610e9d565b601f198416610e4b86610c27565b60005b82811015610e7357848901518255600182019150602085019450602081019050610e4e565b86831015610e905784890151610e8c601f891682610d99565b8355505b6001600288020188555050505b505050505050565b7f4e487b7100000000000000000000000000000000000000000000000000000000600052601160045260246000fd5b6000610edf826107c6565b9150610eea836107c6565b9250828203905081811115610f0257610f01610ea5565b5b9291505056fe416d6f756e7420646562697465642066726f6d20796f757220696e737572616e6365a2646970667358221220f59db46739f3d3b32e4f3aa1b07b50a8e96dd0662edbde95ba316b3658ae625b64736f6c63430008110033",
  "immutableReferences": {},
  "source": "// SPDX-License-Identifier: MIT\npragma solidity >=0.5.0 <0.9.0;\n\ncontract HealthInsurance{\n    \n    address SmartContractOwner;\n    \n    struct person{\n        bool authorised;\n        string name;\n        uint insuranceAmount;\n    }\n    \n    mapping(address=>person) public personmapping;\n    mapping(address=>bool) public doctormapping;\n    \n    constructor() public{\n        SmartContractOwner = msg.sender; \n    }\n    \n    modifier onlySmartContractOwner(){\n        require(SmartContractOwner == msg.sender);\n        _;\n    }\n    \n    function  setDoctor(address _address) public onlySmartContractOwner{\n        require(!doctormapping[_address]);\n        doctormapping[_address] = true;\n    }\n    \n    function setPerson(string memory _name,uint _insuranceAmount) public onlySmartContractOwner returns (address){\n        address uid = address(bytes20(sha256(abi.encodePacked(msg.sender,block.timestamp))));\n        require(!personmapping[uid].authorised);\n        personmapping[uid].authorised = true;\n        personmapping[uid].name = _name;\n        personmapping[uid].insuranceAmount  = _insuranceAmount;\n        \n        return uid;\n    }\n    \n    function claimInsurance(address _uid,uint _insuranceAmountUsed) public returns (string memory){\n        require(!doctormapping[msg.sender]);\n        if(personmapping[_uid].insuranceAmount < _insuranceAmountUsed){\n            revert();\n        }\n        \n        personmapping[_uid].insuranceAmount -= _insuranceAmountUsed;\n        return \"Amount debited from your insurance\";\n    }\n}\n    ",
  "sourcePath": "/Users/rj/Desktop/FYDP practices/truffleEng-main/contracts/HealthInsurance.sol",
  "compiler": {
    "name": "solc",
    "version": "0.8.17+commit.8df45f5f.Emscripten.clang"
  },
  "schemaVersion": "3.4.16",
  "updatedAt": "2024-01-21T11:30:46.618Z",
  "devdoc": {
    "kind": "dev",
    "methods": {},
    "version": 1
  },
  "userdoc": {
    "kind": "user",
    "methods": {},
    "version": 1
  }
}